:1001590000065B4F666D7D077F6F777C395E79712D
:010169000095
:02016A00C100D2
:1000D700EFD39400748094804021E4FEEEC3948EA5
:1000E700748094805012E4FDEDC394027480948070
:0B00F70050030D80F30E80E41F80D545
:0101020022DA
:10009200E5082481603724C0602F24E0602724F023
:1000A200601F24F8601724FC600F24FE60071470A0
:1000B20020750901227509022275090322750904B6
:1000C2002275090522750906227509072275090894
:0500D20022E4F5092203
:10010300D2AFD2A8D2887508FF20B00F7F0A1200A1
:10011300D720B007C2B6D2007508FF120092850837
:0B01230090E50990015993F58080DE03
:0300030002012EC9
:10012E00C0E0C0D075D000C005C006C007300010BA
:10013E00C200C2A87F0A1200D7D2A885A008D2B6E4
:0B014E00D007D006D005D0D0D0E032A2
:03000000020006F5
:0C000600787FE4F6D8FD75812002004DE3
:10001200020103E493A3F8E493A34003F68001F200
:1000220008DFF48029E493A3F85407240CC8C333EF
:10003200C4540F4420C8834004F456800146F6DFBE
:10004200E4800B010204081020408090016AE47EE3
:10005200019360BCA3FF543F30E509541FFEE493B3
:10006200A360010ECF54C025E060A840B8E493A37A
:10007200FAE493A3F8E493A3C8C582C8CAC583CAA5
:10008200F0A3C8C582C8CAC583CADFE9DEE780BE5D
:01016C000092
:00000001FF
